{
  "contractName": "StandardToken",
  "abi": [
    {
      "anonymous": false,
      "inputs": [
        {
          "indexed": true,
          "internalType": "address",
          "name": "_owner",
          "type": "address"
        },
        {
          "indexed": true,
          "internalType": "address",
          "name": "_spender",
          "type": "address"
        },
        {
          "indexed": false,
          "internalType": "uint256",
          "name": "_value",
          "type": "uint256"
        }
      ],
      "name": "Approval",
      "type": "event"
    },
    {
      "anonymous": false,
      "inputs": [
        {
          "indexed": true,
          "internalType": "address",
          "name": "_from",
          "type": "address"
        },
        {
          "indexed": true,
          "internalType": "address",
          "name": "_to",
          "type": "address"
        },
        {
          "indexed": false,
          "internalType": "uint256",
          "name": "_value",
          "type": "uint256"
        }
      ],
      "name": "Transfer",
      "type": "event"
    },
    {
      "constant": true,
      "inputs": [],
      "name": "totalSupply",
      "outputs": [
        {
          "internalType": "uint256",
          "name": "supply",
          "type": "uint256"
        }
      ],
      "payable": false,
      "stateMutability": "view",
      "type": "function"
    },
    {
      "constant": true,
      "inputs": [],
      "name": "total_supply",
      "outputs": [
        {
          "internalType": "uint256",
          "name": "",
          "type": "uint256"
        }
      ],
      "payable": false,
      "stateMutability": "view",
      "type": "function"
    },
    {
      "constant": false,
      "inputs": [
        {
          "internalType": "address",
          "name": "_to",
          "type": "address"
        },
        {
          "internalType": "uint256",
          "name": "_value",
          "type": "uint256"
        }
      ],
      "name": "transfer",
      "outputs": [
        {
          "internalType": "bool",
          "name": "success",
          "type": "bool"
        }
      ],
      "payable": false,
      "stateMutability": "nonpayable",
      "type": "function"
    },
    {
      "constant": false,
      "inputs": [
        {
          "internalType": "address",
          "name": "_from",
          "type": "address"
        },
        {
          "internalType": "address",
          "name": "_to",
          "type": "address"
        },
        {
          "internalType": "uint256",
          "name": "_value",
          "type": "uint256"
        }
      ],
      "name": "transferFrom",
      "outputs": [
        {
          "internalType": "bool",
          "name": "success",
          "type": "bool"
        }
      ],
      "payable": false,
      "stateMutability": "nonpayable",
      "type": "function"
    },
    {
      "constant": true,
      "inputs": [
        {
          "internalType": "address",
          "name": "_owner",
          "type": "address"
        }
      ],
      "name": "balanceOf",
      "outputs": [
        {
          "internalType": "uint256",
          "name": "balance",
          "type": "uint256"
        }
      ],
      "payable": false,
      "stateMutability": "view",
      "type": "function"
    },
    {
      "constant": false,
      "inputs": [
        {
          "internalType": "address",
          "name": "_spender",
          "type": "address"
        },
        {
          "internalType": "uint256",
          "name": "_value",
          "type": "uint256"
        }
      ],
      "name": "approve",
      "outputs": [
        {
          "internalType": "bool",
          "name": "success",
          "type": "bool"
        }
      ],
      "payable": false,
      "stateMutability": "nonpayable",
      "type": "function"
    },
    {
      "constant": true,
      "inputs": [
        {
          "internalType": "address",
          "name": "_owner",
          "type": "address"
        },
        {
          "internalType": "address",
          "name": "_spender",
          "type": "address"
        }
      ],
      "name": "allowance",
      "outputs": [
        {
          "internalType": "uint256",
          "name": "remaining",
          "type": "uint256"
        }
      ],
      "payable": false,
      "stateMutability": "view",
      "type": "function"
    }
  ],
  "bytecode": "0x608060405234801561001057600080fd5b506108c0806100206000396000f3fe608060405234801561001057600080fd5b506004361061007d5760003560e01c80633940e9ee1161005b5780633940e9ee1461018c57806370a08231146101aa578063a9059cbb14610202578063dd62ed3e146102685761007d565b8063095ea7b31461008257806318160ddd146100e857806323b872dd14610106575b600080fd5b6100ce6004803603604081101561009857600080fd5b81019080803573ffffffffffffffffffffffffffffffffffffffff169060200190929190803590602001909291905050506102e0565b604051808215151515815260200191505060405180910390f35b6100f06103d2565b6040518082815260200191505060405180910390f35b6101726004803603606081101561011c57600080fd5b81019080803573ffffffffffffffffffffffffffffffffffffffff169060200190929190803573ffffffffffffffffffffffffffffffffffffffff169060200190929190803590602001909291905050506103d7565b604051808215151515815260200191505060405180910390f35b610194610650565b6040518082815260200191505060405180910390f35b6101ec600480360360208110156101c057600080fd5b81019080803573ffffffffffffffffffffffffffffffffffffffff169060200190929190505050610656565b6040518082815260200191505060405180910390f35b61024e6004803603604081101561021857600080fd5b81019080803573ffffffffffffffffffffffffffffffffffffffff1690602001909291908035906020019092919050505061069e565b604051808215151515815260200191505060405180910390f35b6102ca6004803603604081101561027e57600080fd5b81019080803573ffffffffffffffffffffffffffffffffffffffff169060200190929190803573ffffffffffffffffffffffffffffffffffffffff169060200190929190505050610804565b6040518082815260200191505060405180910390f35b600081600160003373ffffffffffffffffffffffffffffffffffffffff1673ffffffffffffffffffffffffffffffffffffffff16815260200190815260200160002060008573ffffffffffffffffffffffffffffffffffffffff1673ffffffffffffffffffffffffffffffffffffffff168152602001908152602001600020819055508273ffffffffffffffffffffffffffffffffffffffff163373ffffffffffffffffffffffffffffffffffffffff167f8c5be1e5ebec7d5bd14f71427d1e84f3dd0314c0f7b2291e5b200ac8c7c3b925846040518082815260200191505060405180910390a36001905092915050565b600090565b6000816000808673ffffffffffffffffffffffffffffffffffffffff1673ffffffffffffffffffffffffffffffffffffffff16815260200190815260200160002054101580156104a3575081600160008673ffffffffffffffffffffffffffffffffffffffff1673ffffffffffffffffffffffffffffffffffffffff16815260200190815260200160002060003373ffffffffffffffffffffffffffffffffffffffff1673ffffffffffffffffffffffffffffffffffffffff1681526020019081526020016000205410155b80156104af5750600082115b1561064457816000808573ffffffffffffffffffffffffffffffffffffffff1673ffffffffffffffffffffffffffffffffffffffff16815260200190815260200160002060008282540192505081905550816000808673ffffffffffffffffffffffffffffffffffffffff1673ffffffffffffffffffffffffffffffffffffffff1681526020019081526020016000206000828254039250508190555081600160008673ffffffffffffffffffffffffffffffffffffffff1673ffffffffffffffffffffffffffffffffffffffff16815260200190815260200160002060003373ffffffffffffffffffffffffffffffffffffffff1673ffffffffffffffffffffffffffffffffffffffff168152602001908152602001600020600082825403925050819055508273ffffffffffffffffffffffffffffffffffffffff168473ffffffffffffffffffffffffffffffffffffffff167fddf252ad1be2c89b69c2b068fc378daa952ba7f163c4a11628f55a4df523b3ef846040518082815260200191505060405180910390a360019050610649565b600090505b9392505050565b60025481565b60008060008373ffffffffffffffffffffffffffffffffffffffff1673ffffffffffffffffffffffffffffffffffffffff168152602001908152602001600020549050919050565b6000816000803373ffffffffffffffffffffffffffffffffffffffff1673ffffffffffffffffffffffffffffffffffffffff16815260200190815260200160002054101580156106ee5750600082115b156107f957816000803373ffffffffffffffffffffffffffffffffffffffff1673ffffffffffffffffffffffffffffffffffffffff16815260200190815260200160002060008282540392505081905550816000808573ffffffffffffffffffffffffffffffffffffffff1673ffffffffffffffffffffffffffffffffffffffff168152602001908152602001600020600082825401925050819055508273ffffffffffffffffffffffffffffffffffffffff163373ffffffffffffffffffffffffffffffffffffffff167fddf252ad1be2c89b69c2b068fc378daa952ba7f163c4a11628f55a4df523b3ef846040518082815260200191505060405180910390a3600190506107fe565b600090505b92915050565b6000600160008473ffffffffffffffffffffffffffffffffffffffff1673ffffffffffffffffffffffffffffffffffffffff16815260200190815260200160002060008373ffffffffffffffffffffffffffffffffffffffff1673ffffffffffffffffffffffffffffffffffffffff1681526020019081526020016000205490509291505056fea265627a7a72315820d5dd1d4ef5ef3b539cf2d8e06df069168b3827653b8dc9fdb761be35f2148f8564736f6c63430005100032",
  "source": "pragma solidity ^0.5.16;\r\n\r\ninterface IERC20 {\r\n\r\n    /// @return total amount of tokens\r\n    function totalSupply() external view returns (uint256 supply);\r\n\r\n    /// @param _owner The address from which the balance will be retrieved\r\n    /// @return The balance\r\n    function balanceOf(address _owner) external view returns (uint256 balance);\r\n\r\n    /// @notice send `_value` token to `_to` from `msg.sender`\r\n    /// @param _to The address of the recipient\r\n    /// @param _value The amount of token to be transferred\r\n    /// @return Whether the transfer was successful or not\r\n    function transfer(address _to, uint256 _value) external returns (bool success);\r\n\r\n    /// @notice send `_value` token to `_to` from `_from` on the condition it is approved by `_from`\r\n    /// @param _from The address of the sender\r\n    /// @param _to The address of the recipient\r\n    /// @param _value The amount of token to be transferred\r\n    /// @return Whether the transfer was successful or not\r\n    function transferFrom(address _from, address _to, uint256 _value) external returns (bool success);\r\n\r\n    /// @notice `msg.sender` approves `_addr` to spend `_value` tokens\r\n    /// @param _spender The address of the account able to transfer the tokens\r\n    /// @param _value The amount of wei to be approved for transfer\r\n    /// @return Whether the approval was successful or not\r\n    function approve(address _spender, uint256 _value) external returns (bool success);\r\n\r\n    /// @param _owner The address of the account owning tokens\r\n    /// @param _spender The address of the account able to transfer the tokens\r\n    /// @return Amount of remaining tokens allowed to spent\r\n    function allowance(address _owner, address _spender) external view returns (uint256 remaining);\r\n\r\n    event Transfer(address indexed _from, address indexed _to, uint256 _value);\r\n    event Approval(address indexed _owner, address indexed _spender, uint256 _value);\r\n    \r\n}\r\n\r\ncontract ERC20 is IERC20 {\r\n\r\n    /// @return total amount of tokens\r\n    function totalSupply() public view returns (uint256 supply) {}\r\n\r\n    /// @param _owner The address from which the balance will be retrieved\r\n    /// @return The balance\r\n    function balanceOf(address _owner) public view returns (uint256 balance) {}\r\n\r\n    /// @notice send `_value` token to `_to` from `msg.sender`\r\n    /// @param _to The address of the recipient\r\n    /// @param _value The amount of token to be transferred\r\n    /// @return Whether the transfer was successful or not\r\n    function transfer(address _to, uint256 _value) public returns (bool success) {}\r\n\r\n    /// @notice send `_value` token to `_to` from `_from` on the condition it is approved by `_from`\r\n    /// @param _from The address of the sender\r\n    /// @param _to The address of the recipient\r\n    /// @param _value The amount of token to be transferred\r\n    /// @return Whether the transfer was successful or not\r\n    function transferFrom(address _from, address _to, uint256 _value) public returns (bool success) {}\r\n\r\n    /// @notice `msg.sender` approves `_addr` to spend `_value` tokens\r\n    /// @param _spender The address of the account able to transfer the tokens\r\n    /// @param _value The amount of wei to be approved for transfer\r\n    /// @return Whether the approval was successful or not\r\n    function approve(address _spender, uint256 _value) public returns (bool success) {}\r\n\r\n    /// @param _owner The address of the account owning tokens\r\n    /// @param _spender The address of the account able to transfer the tokens\r\n    /// @return Amount of remaining tokens allowed to spent\r\n    function allowance(address _owner, address _spender) public view returns (uint256 remaining) {}\r\n\r\n    event Transfer(address indexed _from, address indexed _to, uint256 _value);\r\n    event Approval(address indexed _owner, address indexed _spender, uint256 _value);\r\n    \r\n}\r\n\r\ncontract StandardToken is ERC20 {\r\n\r\n    function transfer(address _to, uint256 _value) public returns (bool success) {\r\n        //Default assumes totalSupply can't be over max (2^256 - 1).\r\n        //If your token leaves out totalSupply and can issue more tokens as time goes on, you need to check if it doesn't wrap.\r\n        //Replace the if with this one instead.\r\n        //if (balances[msg.sender] >= _value && balances[_to] + _value > balances[_to]) {\r\n        if (balances[msg.sender] >= _value && _value > 0) {\r\n            balances[msg.sender] -= _value;\r\n            balances[_to] += _value;\r\n            emit Transfer(msg.sender, _to, _value);\r\n            return true;\r\n        } else { return false; }\r\n    }\r\n\r\n    function transferFrom(address _from, address _to, uint256 _value) public returns (bool success) {\r\n        //same as above. Replace this line with the following if you want to protect against wrapping uints.\r\n        //if (balances[_from] >= _value && allowed[_from][msg.sender] >= _value && balances[_to] + _value > balances[_to]) {\r\n        if (balances[_from] >= _value && allowed[_from][msg.sender] >= _value && _value > 0) {\r\n            balances[_to] += _value;\r\n            balances[_from] -= _value;\r\n            allowed[_from][msg.sender] -= _value;\r\n            emit Transfer(_from, _to, _value);\r\n            return true;\r\n        } else { return false; }\r\n    }\r\n\r\n    function balanceOf(address _owner) public view returns (uint256 balance) {\r\n        return balances[_owner];\r\n    }\r\n\r\n    function approve(address _spender, uint256 _value) public returns (bool success) {\r\n        allowed[msg.sender][_spender] = _value;\r\n        emit Approval(msg.sender, _spender, _value);\r\n        return true;\r\n    }\r\n\r\n    function allowance(address _owner, address _spender) public view returns (uint256 remaining) {\r\n      return allowed[_owner][_spender];\r\n    }\r\n\r\n    mapping (address => uint256) balances;\r\n    mapping (address => mapping (address => uint256)) allowed;\r\n    uint256 public total_supply;\r\n}\r\n\r\ncontract GBCCrowdSale is StandardToken{\r\n    \r\n    uint256 public _rate;\r\n    address payable public _wallet;\r\n    IERC20 public _token;\r\n    uint256 public _weiRaised;\r\n    \r\n    constructor(uint256 rate, address payable wallet, IERC20 token) public{\r\n        require(rate > 0, \"GBCCrowdSale : rate is 0\");\r\n        require(wallet != address(0), \"GBCCrowdSale : wallet is the zero address\");\r\n        require(address(token) != address(0), \"GBCCrowdSale : token is the zero address\");\r\n        _rate = rate;\r\n        _wallet = wallet;\r\n        _token = token;\r\n    }\r\n    \r\n    function() external payable{\r\n        buyToken(msg.sender);\r\n    }\r\n    \r\n    function buyToken(address beneficiary) public payable {\r\n        require(msg.value != 0 , \"GBCCrowdSale : value is 0 ETH\");\r\n        require(beneficiary != address(0), \"GBCCrowdSale : beneficiary address is 0\");\r\n        uint256 weiAmount = msg.value;\r\n        uint256 tokens = _getTokensCreated(weiAmount);\r\n        _weiRaised = _weiRaised + weiAmount;\r\n        _processPurchase(beneficiary,tokens);\r\n        emit TokenPurchased(msg.sender, weiAmount, tokens);\r\n        _forwardFunds();\r\n    }\r\n    \r\n    function _getTokensCreated(uint256 weiAmount) internal view returns (uint256) {\r\n        return weiAmount * _rate;\r\n    }\r\n    \r\n    function _processPurchase(address beneficiary, uint256 tokens) internal {\r\n        _deliverTokens(beneficiary, tokens);\r\n    }\r\n    \r\n    function _deliverTokens(address beneficiary, uint256 tokens) internal {\r\n        _token.transfer(beneficiary, tokens);\r\n    }\r\n    \r\n    function _forwardFunds() internal {\r\n        _wallet.transfer(msg.value);\r\n    }\r\n    \r\n    event TokenPurchased(address indexed purchaser, uint256 indexed weiAmount, uint256 indexed tokens);\r\n}",
  "sourcePath": "C:/Users/Pratik/Downloads/lab5/lab5/contracts/GBCCrowdSale.sol",
  "compiler": {
    "name": "solc",
    "version": "0.5.16+commit.9c3226ce.Emscripten.clang"
  },
  "schemaVersion": "3.0.21",
  "updatedAt": "2020-01-19T00:10:21.849Z",
  "networkType": "ethereum",
  "devdoc": {
    "methods": {
      "totalSupply()": {
        "return": "total amount of tokens"
      }
    }
  },
  "userdoc": {
    "methods": {}
  }
}